:101C04001049091500031800008382000000000039
:101BDF0075E10775E21075E34475A7FF75A5FF75ED
:031BEF00A6FF222C
:101BC30075B167E4FFFE0FBF00010EE4B507F7EE42
:0B1BD300B401F3E5B130E7FB75B28808
:011BDE0022E4
:071C230075FFDE75FFAD2225
:1016E80078687C007D017BFF7A1C79047E007F0787
:1016F800120E88786F7C007D017BFF7A1C790B7E47
:10170800007F05120E8878747C007D017BFF7A1CAF
:1017180079107E007F04120E8890006FE0900078A8
:10172800F0900070E0900079F0900068E090007A06
:10173800F0900069E090007BF090006AE090007CF7
:10174800F090006BE090007DF090006CE090007EDF
:10175800F090006DE090007FF090006EE0900080C7
:10176800F0900074E0900081F0900075E0900082A5
:10177800F0900076E0900083F0900077E09000848D
:10178800F0900071E0900085F0900072E090008683
:09179800F0900073E0900087F06E
:0117A1002225
:101BF200121C23121BDF121BC31218B1121AE002AD
:021C02001C14B0
:101AB000E4900067F0C296121BF2D2AF1216E87FD4
:101AC000C87E00121B837B017A00798890006D74B8
:101AD00010F0E4FDFC121A34120A4412064E80E69D
:101BA400E4FDFCC3ED9FEC9E501400000000000017
:0E1BB400000000000000000DBD00010C80E5E7
:011BC2002200
:041B8300AB07AA06FC
:101B8700E4F9E9C39BE49A50137FFA7E00121BA481
:0C1B9700121BA4121BA4121BA40980E660
:011BA300221F
:10003E000000003030000000000000181800000022
:10004E0080808080808080800000000000000000A2
:10005E00000000BE2A2A2AEA2A2A2A3E00000000B0
:10006E00004442494949497F4949494941400000B4
:10007E000004FF242424FF0400FE222222FE00009E
:10008E0088482F090919AF48300F0242827F0000BD
:10009E00000080C0E0F0FCFFFCF0E0C0800000003B
:1000AE00000F1F3F7F7FFFFFFF7F7F3F1F0F00006F
:1000BE00404042CC0040A09E8282829EA020200022
:1000CE000000003F908840432C102846418080005D
:1000DE00001715D55557557D555755D51517000091
:1000EE004040407F555555555555557F4040400031
:1000FE001060020CC00088884F58245484E400001D
:10010E0004047C03008242320E02023E424272001E
:10011E0000202020A06000FF60804020180000001A
:10012E00201008060140807F000102040810100014
:10013E0000FC848484FC001010101010FF101000BE
:10014E00003F1010103F0000010640807F000000AD
:10015E0000F8010600F0121212F2020202FE000076
:10016E0000FF0000001F1111111F0040807F0000D2
:10017E00404042CC0040A09E8282829EA020200061
:10018E000000003F908840432C102846418080009C
:10019E00001715D55557557D555755D515170000D0
:1001AE004040407F555555555555557F4040400070
:1001BE002030AC632018084848487F48484808005B
:1001CE0022672212121200FE4242424242FE0000FA
:1001DE000404E424242424FF24242424E40404001A
:1001EE0040402722120A06FF060A1222274040002C
:1001FE0000FC848484FC001010101010FF101000FE
:10020E00003F1010103F0000010640807F000000EC
:10021E0000F8010600F0121212F2020202FE0000B5
:10022E0000FF0000001F1111111F0040807F000011
:10023E000000E28282828282828282FE00000000C0
:10024E0000003F4040404040404040404078000069
:10025E001060020CC00088884F58245484E40000BB
:10026E0004047C03008242320E02023E42427200BD
:10027E0000202020A06000FF6080402018000000B9
:10028E00201008060140807F0001020408101000B3
:10029E0000FC848484FC001010101010FF1010005D
:1002AE00003F1010103F0000010640807F0000004C
:1002BE0000F8010600F0121212F2020202FE000015
:1002CE0000FF0000001F1111111F0040807F000071
:1002DE000000000000000000000000000000000010
:1002EE000000363600000000000000000000000094
:1002FE00404042CC0000028242F20E4282020000D6
:10030E000040201F20424140405F4040404340009B
:10031E0080808888888888FF888888888880800080
:10032E0020201008040201FF010204081020200002
:10033E0080828282FE8282828282FE82828280001D
:10034E00008040300F0000000000FF0000000000A1
:10035E001010F01F10F00040E05847405060C000F1
:10036E004022150816210000FE42424242FE0000C5
:10037E001060020CC00088884F58245484E400009A
:10038E0004047C03008242320E02023E424272009C
:10039E0000202020A06000FF608040201800000098
:1003AE00201008060140807F000102040810100092
:1003BE00000000000000000000000000000000002F
:1003CE0000003636000000000000000000000000B3
:1003DE000000E28282828282828282FE000000001F
:1003EE0000003F40404040404040404040780000C8
:1003FE002030AC632018084848487F484848080019
:10040E0022672212121200FE4242424242FE0000B7
:10041E000404E424242424FF24242424E4040400D7
:10042E0040402722120A06FF060A122227404000E9
:10043E001060020CC00088884F58245484E40000D9
:10044E0004047C03008242320E02023E42427200DB
:10045E0000202020A06000FF6080402018000000D7
:10046E00201008060140807F0001020408101000D1
:10047E00000000000000000000000000000000006E
:10048E0000003636000000000000000000000000F2
:10049E0080808080808080808080808080808000CE
:1004AE00000000000000000000000000000000003E
:1004BE0000000808080808080808080808000000D6
:1004CE00101010101010101010101010101010002E
:1004DE00000484848484848484848484840400005A
:1004EE00202020202020202020202020202020001E
:1004FE0000FC040404FC040404FC040404FC0000DA
:10050E00007F28242320202020212222227F000069
:10051E000002424242C27E42424242C202020000F7
:10052E0040404040784740404040407F404040007F
:10053E0020202020202021222C20202020202000BE
:10054E00004020100C03000000010204186000009F
:10055E0040404242424242FE4242424242404000FB
:10056E0080804020100C0300030C1020408080007F
:10057E0000E010080810E000000F102020100F00FF
:10058E00001010F8000000000020203F2020000086
:10059E0000700808088870000030282422213000DE
:1005AE0000300888884830000018202020110E00E6
:1005BE000000C02010F8000000070424243F24008F
:1005CE0000F80888880808000019212020110E0064
:1005DE0000E0108888180000000F112020110E0076
:1005EE0000380808C82818000000003F000000006E
:1005FE000070880808887000001C222121221C002F
:10060E0000E010080810E0000008312222110F004F
:10061E0000000000000000000000000000000000CC
:10062E0000000000000000000000000000000000BC
:10063E0000000000000000000000000000000000AC
:10182E0060200047000000000000000000000000E3
:10183E00000000000000000000000000000000009A
:0C184E0000000000410046004100450081
:1018B100C2B47F0A7E00121B11D2B47F0A7E0012CD
:1018C1001B117FE27E00121923121B0D7F2C7E005B
:1018D100121923121B0D7F2E7E00121923121B0DCC
:1018E1007F2F7E00121923121B0D7F247E001219F7
:1018F100237F817E001219237F127E001219237F1C
:10190100A27E001219237FC87E001219237FA07EB8
:10191100001219237F407E001219237FAF7E00023F
:02192100192388
:08192300900078EEF0A3EFF054
:10192B00C2B5C2B3E4A3F0C2B17F027E00121B3773
:10193B00900079E030E704D2B28002C2B2D2B17F1C
:10194B00027E00121B37900078E0FEA3E0780108BE
:10195B008005C333CE33CED8F9FF900078EEF0A3D9
:10196B00EFF0900078EEF0A3EFF0A3E004F0E0C30B
:08197B006480948840B1D2B5EC
:011983002241
:0E000300E0FBA3E0FAA3E0F9120EAEFF7E00D0
:10001100C2B5D2B3E4FDC2B1EF30E704D2B280027F
:10002100C2B2D2B1EF7801088005C333CE33CED846
:09003100F9FF0DEDB408DFD2B5B2
:01003A0022A3
:041B0D007F057E00D2
:101B1100E4FDFCC3ED9FEE6480F8EC648098501501
:101B2100E4FBFA0BBB00010AEB646E4A70F50DBDD4
:051B310000010C80DE44
:011B3600228C
:101B3700E4FDFCC3ED9FEE6480F8EC6480985015DB
:101B4700E4FBFA0BBB00010AEB64014A70F50DBD1B
:051B570000010C80DE1E
:011B5C002266
:061A7B00E02FFFA3E0FDD7
:101A8100900077EDF0E014F01FEF24B0FFE433FE97
:101A9100121923900077E0C4540F2410FFE433FEA1
:0F1AA100121923900077E0540FFF7E00021923E3
:101AE000E4900068F0900068E0FFC39409501DEF97
:101AF00004FF7D01121A81E4FCE4FFFE1200110CC8
:0C1B0000ECB484F5900068E004F080D99B
:011B0C0022B6
:10198400EFC4F8540FC868FFEEC454F048FE747EE8
:0A1994002FF974053EFA7BFF7F0572
:10199E00900071EFF0A3EDF0A3EBF0A3EAF0A3E952
:0119AE00F048
:1019AF00E4A3F0900076E0FFC394025025900071FD
:1019BF00121A7BE4FC900073120003900074E4751C
:1019CF00F001120EFD0CECB408EB900076E004F081
:0219DF0080D1B5
:0119E10022E3
:0E19E20035F0FA7BFFE0C454F02408FD7F01CD
:1019F00090006CEFF0A3EDF0A3EBF0A3EAF0A3E905
:011A0000F0F5
:101A0100E4A3F0900071E0FFC39402502590006CB4
:101A1100121A7BE4FC90006E12000390006FE475D3
:101A2100F001120EFD0CECB410EB900071E004F02B
:021A310080D162
:011A33002290
:101315007BFF7A05799E7D087F0512199E7BFF7AF2
:1013250005797E7D107F0512199E900098E0FEA339
:10133500E0FF7C007D10120EC77D18121984900005
:1013450098E0FEA3E0FF7C007D10120EC7EDC4F807
:10135500540FC868FFECC454F048FE747E2FF9742E
:10136500053EFA7BFF7D207F0512199E7BFF7A00E3
:10137500794E7D287F0512199E7E00900097E054D6
:101385001FFF7C007D10120EC77D301219847E0070
:10139500900097E0541FFF7C007D10120EC7EDC42E
:1013A500F8540FC868FFECC454F048FE747E2FF95A
:1013B50074053EFA7BFF7D387F0512199E7BFF7A07
:1013C50000794E7D407F0512199E7E00900093E0C6
:1013D500543FFF7C007D10120EC7EFC4F8540FC8B0
:1013E50068FFEEC454F048FE747E2FF974053EFA8A
:1013F5007BFF7D487F0512199E7E00900093E05487
:101405003FFF7C007D10120EC7EDC4F8540FC8686D
:10141500FFECC454F048FE747E2FF974053EFA7B48
:10142500FF7D507F0512199E7E00900091E0543F8C
:10143500FF7C007D10120EC7EFC4F8540FC868FF7B
:10144500EEC454F048FE747E2FF974053EFA7BFF16
:101455007D107F0712199E7E00900091E0543FFF9A
:101465007C007D10120EC7EDC4F8540FC868FFEC60
:10147500C454F048FE747E2FF974053EFA7BFF7D57
:10148500187F0712199E7BFF7A00793E7D207F0722
:1014950012199E7E0090008FE0547FFF7C007D1026
:1014A500120EC7EFC4F8540FC868FFEEC454F048D5
:1014B500FE747E2FF974053EFA7BFF7D287F0712A7
:1014C500199E7E0090008FE0547FFF7C007D1012F6
:1014D5000EC7EDC4F8540FC868FFECC454F048FEBD
:1014E500747E2FF974053EFA7BFF7D307F07121954
:1014F5009E7BFF7A00793E7D387F0712199E7E001C
:1015050090008DE0547FFF7C007D10120EC7EFC464
:10151500F8540FC868FFEEC454F048FE747E2FF9E6
:1015250074053EFA7BFF7D407F0712199E7E009071
:10153500008DE0547FFF7C007D10120EC7EDC4F8CE
:10154500540FC868FFECC454F048FE747E2FF9743C
:10155500053EFA7BFF7D487F0712199E7BFF7A00C7
:10156500795E7D707F031219F07BFF7A00797E7DAD
:10157500707F051219F07E00900095E054077805FC
:10158500C333CE33CED8F9249EF974043EFA7BFFDB
:071595007D707F070219F0D1
:101B5D00FDC3EF9DFFEE9CF0A3EFF090008EA3E090
:031B6D00547FFFA3
:101B7000EF540FFEEF54F0C4540F75F00AA42EFF7B
:021B80007E00E5
:011B82002240
:10064E00900090A3E0543FFF121B7090002DE0FC31
:10065E00A3E090004F121B5D90002BE0FCA3E0FD89
:10066E00C3EF9DFFEE9C90004DF0A3EFF090008C39
:10067E00121B6B900029E0FCA3E0FDC3EF9DFFEE83
:10068E009C90004BF0A3EFF0900090A3E0543FFF3E
:10069E00121B7090000AE0FCA3E0900055121B5D47
:1006AE00900008E0FCA3E0FDC3EF9DFFEE9C9000E0
:1006BE0053F0A3EFF090008C121B6B900006E0FC41
:1006CE00A3E0FDC3EF9DFFEE9C900051F0A3EFF071
:1006DE00C390004DE064809480501C900050E02444
:1006EE00FFF090004FE034FFF090004EE0243CF01D
:1006FE0090004DE03400F0C390004BE06480948095
:10070E00501C90004EE024FFF090004DE034FFF0BE
:10071E0090004CE0243CF090004BE03400F0C3908D
:10072E000051E064809480501C900054E024FFF04F
:10073E00900053E034FFF0900052E0243CF0900023
:10074E0051E03400F0C3900053E064809480501C5C
:10075E00900056E024FFF0900055E034FFF090003A
:10076E0054E0243CF0900053E03400F0900045E05B
:10077E006401705D90004FE0FEA3E0FFD39400EEA5
:10078E00648094804002803CEF4E7013D390004EF4
:10079E00E0940090004DE0648094804002802590AB
:1007AE00004FE07002A3E0702390004DE07002A3B2
:1007BE00E07019D390004CE0940090004BE0648000
:1007CE00948040089000467401F08005E490004645
:1007DE00F0C3900055E0648094804021900053E077
:1007EE00648094804017900051E064809480400DA6
:1007FE009000467402F0E4900045F08006900045AB
:10080E007401F0900046E0704F900068F090006820
:10081E00E0FFC394065015EF75F020A424FEF97482
:10082E00021219E2900068E004F080E1E4900069A1
:10083E00F0900069E0FFC39408501BEF75F008A418
:10084E002410FD7BFF7A06791E7F0312199E9000FD
:10085E0069E004F080DBD297900046E0640160030B
:10086E000209EC90006AF090006AE0FFC394065013
:10087E0015EF75F020A4243EF974021219E29000CF
:10088E006AE004F080E190004FE0FEA3E0FF7C0000
:10089E007D0A120EC7EFC4F8540FC868FFEEC45499
:1008AE00F048FE747E2FF974053EFA7BFF7D107FB3
:1008BE000312199E90004FE0FEA3E0FF7C007D0A1C
:1008CE00120EC7EDC4F8540FC868FFECC454F048BC
:1008DE00FE747E2FF974053EFA7BFF7D187F03129E
:1008EE00199E7BFF7A00793E7D207F0312199E9020
:1008FE00004DE0FEA3E0FF7C007D0A120EC7EFC4A0
:10090E00F8540FC868FFEEC454F048FE747E2FF9F9
:10091E0074053EFA7BFF7D287F0312199E90004DD1
:10092E00E0FEA3E0FF7C007D0A120EC7EDC4F85472
:10093E000FC868FFECC454F048FE747E2FF974059E
:10094E003EFA7BFF7D307F0312199E7BFF7A007982
:10095E003E7D387F0312199E90004BE0FEA3E0FF10
:10096E007C007D0A120EC7EFC4F8540FC868FFEE64
:10097E00C454F048FE747E2FF974053EFA7BFF7D59
:10098E00407F0312199E90004BE0FEA3E0FF7C0017
:10099E007D0A120EC7EDC4F8540FC868FFECC4549C
:1009AE00F048FE747E2FF974053EFA7BFF7D487F7A
:1009BE000312199E7BFF7A00799E7D707F011219BA
:1009CE00F07F647E00121B837BFF7A06792E7D708A
:1009DE007F011219F07F647E00121B83C297900074
:1009EE0046E06402704F90006BF090006BE0FFC326
:1009FE0094065015EF75F020A424DEF97403121935
:100A0E00E290006BE004F080E1E4900069F0900069
:100A1E0069E0FFC39408501BEF75F008A42410FD85
:100A2E007BFF7A06791E7F0312199E900069E004FF
:050A3E00F080DBD297FF
:010A43002290
:0F1C140075C04475CFEE43E60243F602D20122BB
:03003B0002159C0F
:10159C00C0E0C0F0C083C082C0D075D000C000C015
:1015AC0001C002C003C007AFC1EF12100F15DE0857
:1015BC0015E01015EB18165C2015F628165C301685
:1015CC005C38166240167748167B5016B2580000ED
:1015DC0016CD80009000ADE0F5C2C2C50216D190C8
:1015EC0000A8E0D39400403180099000A8E0D39487
:1015FC000040239000AAE0FBA3E0FAA3E0F9120F4D
:10160C0013F5C29000ABE475F002120EFD9000A829
:10161C00E014F00216D13001030216CD9000AEE0BA
:10162C009000AD600574A1F0800374A3F09000AF3E
:10163C00E0F9A3E0FAA3E09000AAC9F0A3EAF0A3B2
:10164C00E9F09000A9E09000A8F0D2C5D201807515
:10165C00D2C4D2C5806F9000A8E0FFD3940140049F
:10166C00D2C28002C2C2EF705C8056D2C580569046
:10167C0000A8E0D394004023AFC29000AAE0FBA3E3
:10168C00E0FAA3E0F9E48FF0120FC39000ABE4751D
:10169C00F002120EFD9000A8E014F09000A8E0B447
:1016AC000123C2C2801FAFC29000AAE0FBA3E0FAE4
:1016BC00A3E0F9E48FF0120FC3D2C4C200D20180B0
:1016CC0004D2C4C200C2C3D007D003D002D001D010
:0C16DC0000D0D0D082D083D0F0D0E0321B
:101A340090006BECF0A3EDF0E49000AEF0A3EBF0BB
:101A4400A3EAF0A3E9F090006DE09000A9F0200073
:101A5400FD9000AA7401F0A37400F0A3746BF0D29B
:101A640000D2C2C2019000A87401F09000AD74A22B
:071A7400F0D2C52000FD22A5
:10185A004100220060200025000000000000000076
:10186A000008000000000000000000000000000066
:10187A0000000000000000006020000200000000DC
:10188A000000000000090000000000000000000045
:10189A0000000000000000000000000042000000FC
:0618AA00004200230000D3
:0B108A0090006AEBF0A3EAF0A3E9F08D
:1010950020A32D7F287E00121B8320A323900024EC
:1010A500E004F07006900023E004F0D3900024E003
:1010B5009402900023E0648094804004E4F0A3F05F
:1010C50020A2267F287E00121B8320A21C900024CC
:1010D500E024FFF0900023E034FFF0C3E064809447
:1010E500805006E4F0A37402F0900023E07002A3A0
:1010F500E060030211917F50FE121B8320A04690F1
:10110500006AE0FBA3E0FAA3E0F9900008E475F0BB
:1011150001120F76900008120F3EFFAEF0D394181F
:10112500EE64809480400A7C007D007E007F008014
:101135000090006AE0FBA3E0FAA3E0F9900008EE56
:101145008FF0120FE220A14490006AE0FBA3E0FAC1
:10115500A3E0F990000874FFF5F0120F76900008EF
:10116500120F3EFFAEF0C3EE64809480500A7C00FF
:101175007D187E007F18800090006AE0FBA3E0FAEE
:10118500A3E0F9900008EE8FF0120FE2900023E043
:10119500FEA3E0FF4E600890006DEEF0A3EFF09027
:1011A500006DE0FEA3E0FF900023E06E7003A3E076
:1011B5006F60030212B37F50FE121B8320A077904D
:1011C500006DE0FEA3E0FFC374049FFFE49EFEEF05
:1011D50025E0FFEE33FE90006AE0FBA3E0FAA3E012
:1011E500F98F828E83E475F001120F768F828E83DC
:1011F500120F3EFFAEF0D3943BEE64809480400620
:101205007C007D008004AC06AD0790006DE0FEA378
:10121500E0FFC374049FFFE49EFEEF25E0FFEE337D
:10122500FE90006AE0FBA3E0FAA3E0F98F828E83CB
:10123500EC8DF0120FE220A17590006DE0FEA3E0A9
:10124500FFC374049FFFE49EFEEF25E0FFEE33FE2F
:1012550090006AE0FBA3E0FAA3E0F98F828E837425
:10126500FFF5F0120F768F828E83120F3EFFAEF0E0
:10127500C3EE6480948050067C007D3B8004AC0600
:10128500AD0790006DE0FEA3E0FFC374049FFFE48B
:101295009EFEEF25E0FFEE33FE90006AE0FBA3E043
:1012A500FAA3E0F98F828E83EC8DF0120FE29000A5
:1012B50000E0FEA3E0FF64014E6006EF64024E709D
:1012C5004E900023E0FEA3E0FF90006FEEF0FCA33C
:1012D500EFF0FD6D7002EE6C703590006FA3E07558
:1012E500F018A42410FD7BFF7A06791E7F071219DA
:1012F5009E90006FA3E075F018A42418FD7BFF7A7B
:0F13050006791E7F0712199E7FC87E00121B8378
:0113140022B6
:100A440012131530A403020D8A7F147E00121B8337
:100A5400900000E4F0A304F030A403020D8A1218FD
:100A6400B17FC87E00121B83900000E07004A3E0F5
:100A740064016003020BF2900068F0900068E0FFEC
:100A8400C394065023EF75F020A424BEF9740035F6
:100A9400F0FA7BFFE0C454F02408FD7F011219F042
:100AA400900068E004F080D390002DE0FEA3E0FF06
:100AB4007C007D0A120EC7EFC4F8540FC868FFEE1D
:100AC400C454F048FE747E2FF974053EFA7BFF7D12
:100AD400107F0712199E90002DE0FEA3E0FF7C001A
:100AE4007D0A120EC7EDC4F8540FC868FFECC45455
:100AF400F048FE747E2FF974053EFA7BFF7D187F63
:100B04000712199E7BFF7A00793E7D207F07121918
:100B14009E90002BE0FEA3E0FF7C007D0A120EC72E
:100B2400EFC4F8540FC868FFEEC454F048FE747E56
:100B34002FF974053EFA7BFF7D287F0712199E90DA
:100B4400002BE0FEA3E0FF7C007D0A120EC7EDC47B
:100B5400F8540FC868FFECC454F048FE747E2FF9B3
:100B640074053EFA7BFF7D307F0712199E7BFF7A66
:100B740000793E7D387F0712199E900029E0FEA37C
:100B8400E0FF7C007D0A120EC7EFC4F8540FC8685A
:100B9400FFEEC454F048FE747E2FF974053EFA7BD0
:100BA400FF7D407F0712199E900029E0FEA3E0FF1D
:100BB4007C007D0A120EC7EDC4F8540FC868FFEC20
:100BC400C454F048FE747E2FF974053EFA7BFF7D11
:100BD400487F0712199E20A409900000E4F0A37432
:100BE40002F07B017A00792512108A020A6C12182D
:100BF400B17F647E00121B83900000E07004A3E0C8
:100C040064026003020D80900069F0900069E0FFC7
:100C1400C394065023EF75F020A4247EF9740135A3
:100C2400F0FA7BFFE0C454F02408FD7F011219F0B0
:100C3400900069E004F080D390000AE0FEA3E0FF96
:100C44007C007D0A120EC7EFC4F8540FC868FFEE8B
:100C5400C454F048FE747E2FF974053EFA7BFF7D80
:100C6400107F0712199E90000AE0FEA3E0FF7C00AB
:100C74007D0A120EC7EDC4F8540FC868FFECC454C3
:100C8400F048FE747E2FF974053EFA7BFF7D187FD1
:100C94000712199E7BFF7A00793E7D207F07121987
:100CA4009E900008E0FEA3E0FF7C007D0A120EC7C0
:100CB400EFC4F8540FC868FFEEC454F048FE747EC5
:100CC4002FF974053EFA7BFF7D287F0712199E9049
:100CD4000008E0FEA3E0FF7C007D0A120EC7EDC40D
:100CE400F8540FC868FFECC454F048FE747E2FF922
:100CF40074053EFA7BFF7D307F0712199E7BFF7AD5
:100D040000793E7D387F0712199E900006E0FEA30D
:100D1400E0FF7C007D0A120EC7EFC4F8540FC868C8
:100D2400FFEEC454F048FE747E2FF974053EFA7B3E
:100D3400FF7D407F0712199E900006E0FEA3E0FFAE
:100D44007C007D0A120EC7EDC4F8540FC868FFEC8E
:100D5400C454F048FE747E2FF974053EFA7BFF7D7F
:100D6400487F0712199E20A407E4900000F0A3F026
:100D74007B017A00790212108A020BFC1218B17FEF
:100D8400647E00121B8320A0069000227401F020D0
:100D9400A1069000227402F020A20690002274039F
:100DA400F020A3069000227404F020A406900022F0
:030DB4007405F0D3
:010DB7002219
:030000000217A242
:0C17A200787FE4F6D8FD7581200217E97D
:100DB800E709F608DFFA8046E709F208DFFA803E1D
:100DC80088828C83E709F0A3DFFA8032E309F6080A
:100DD800DFFA8078E309F208DFFA807088828C8372
:100DE800E309F0A3DFFA806489828A83E0A3F60826
:100DF800DFFA805889828A83E0A3F208DFFA804C00
:100E080080D280FA80C680D4806980F280338010D6
:100E180080A680EA809A80A880DA80E280CA80333F
:100E280089828A83ECFAE493A3C8C582C8CCC583B7
:100E3800CCF0A3C8C582C8CCC583CCDFE9DEE78087
:100E48000D89828A83E493A3F608DFF9ECFAA9F006
:100E5800EDFB2289828A83ECFAE0A3C8C582C8CC5C
:100E6800C583CCF0A3C8C582C8CCC583CCDFEADE75
:100E7800E880DB89828A83E493A3F208DFF980CCD7
:100E880088F0EF60010E4E60C388F0ED2402B404D0
:100E98000050B9F582EB2402B4040050AF23234577
:060EA8008223900E087386
:100EAE00BB010689828A83E0225002E722BBFE0242
:090EBE00E32289828A83E4932275
:100EC700C2D5EC30E709B2D5E4C39DFDE49CFCEE46
:100ED70030E715B2D5E4C39FFFE49EFE121035C379
:100EE700E49DFDE49CFC800312103530D507C3E474
:060EF7009FFFE49EFE22B5
:100EFD00C5F0F8A3E028F0C5F0F8E5821582700280
:060F0D001583E038F0221C
:100F1300BB010A89828A83E0F5F0A3E022500687A9
:100F2300F009E71922BBFE07E3F5F009E31922896B
:0B0F3300828A83E493F5F0740193229E
:100F3E00BB0110E58229F582E5833AF583E0F5F0F1
:100F4E00A3E0225009E92582F886F008E622BBFECE
:100F5E000AE92582F8E2F5F008E222E5832AF58314
:080F6E00E993F5F0A3E99322D9
:100F7600BB010DC58229C582C5833AC583020EFD14
:100F86005011C58229F808E5F026F618F5F0E58235
:100F960036F622BBFE11C58229F808E225F0F5F0E7
:100FA600F218E23582F222F8E58229F582E5832AF3
:0D0FB600F58374019325F0F5F0E4933822E3
:100FC300BB010A89828A83F0E5F0A3F0225006F779
:0F0FD30009A7F01922BBFE06F3E5F009F3192276
:100FE200F8BB0111E58229F582E5833AF583E8F041
:100FF200E5F0A3F0225009E92582C8F608A6F022FE
:0D100200BBFE09E92582C8F2E5F008F222E4
:10100F00D083D082F8E4937012740193700DA3A370
:10101F0093F8740193F5828883E473740293686084
:06102F00EFA3A3A380DF84
:1017AE00021AB0E493A3F8E493A34003F68001F287
:1017BE0008DFF48029E493A3F85407240CC8C3333C
:1017CE00C4540F4420C8834004F456800146F6DF0B
:1017DE00E4800B010204081020408090182EE47E55
:1017EE00019360BCA3FF543F30E509541FFEE49300
:1017FE00A360010ECF54C025E060A840B8E493A3C7
:10180E00FAE493A3F8E493A3C8C582C8CAC583CAF1
:10181E00F0A3C8C582C8CAC583CADFE9DEE780BEA9
:0118B0000037
:10103500BC000BBE0029EF8DF084FFADF022E4CC9F
:10104500F875F008EF2FFFEE33FEEC33FCEE9DEC68
:10105500984005FCEE9DFE0FD5F0E9E4CEFD22EDAE
:10106500F8F5F0EE8420D21CFEADF075F008EF2FF8
:10107500FFED33FD4007985006D5F0F222C398FDE9
:051085000FD5F0EA2286
:00000001FF
