:10000E00FEFDFBF7EFDFBF7F7FBFDFEFF7FBFDFEF0
:10001E00FEFCF8F0E0C080007F3F1F0F07030100D9
:10002E00000103070F1F3F7FFF0080C0E0F0F8FCC8
:10003E00FEFFFEFCFAF6EEDEBE7E7F3F5F6F777B45
:10004E007D7E7EBDDBE77E3C1E00E7C38100183C53
:10005E007EFFE0C080000703010080C0E0F0EFCF1C
:10006E008F0F0E0C0800103070F01F3F7FFF000046
:10007E00F88BF8F2F95BF9B7FA14FA66FAB9FB03E2
:10008E00FB4AFB8FFBCFFC0BFC43FC78FCABFCDB91
:10009E00FD08FD33FD5BFD81FDA5FDC7FDE7FE05FA
:1000AE00FE21FE3CFE55FE6DFE84FE99FEADFEC0A9
:1000BE00FE02FEE3FEF3FF02FF10FF1DFF2AFF36D6
:1000CE00FF42FF4CFF56FF60FF69FF71FF79FF8112
:1000DE0000040004180418041504130415040E0873
:1000EE00130415041804150413100004180418043E
:1000FE001504130415040C08130415041804130432
:10010E001110000411041304150418041A04180421
:10011E001604180415041504130413100004110416
:10012E001304110411041304110413041304150809
:10013E0018041504150C00041804180415041304EF
:10014E0015040E08130415041804150413100004E6
:10015E00180418041504130415040C0813041504CC
:10016E0018041304111000041104130415041804C8
:10017E001A04180416041804150415041304130C99
:0C018E000C041508130413081110FFFFE7
:04000300020801F4FA
:100C0F00EFD39400400B7EB57DB5DDFEDEFA1F807D
:010C1F00EFE5
:010C200022B1
:0B0C2100EF1FAC0670011E4C70F622A5
:080C2C007F967E96DEFEDFFAE2
:010C3400229D
:03000B00020903E4
:10090300C0E0C083C082C0D075A0C37580C375909A
:1009130081B2B7E51025E0247CF582E43400F58349
:10092300E493F58CE51025E0247DF582E43400F5AD
:1009330083E493F58A7580FF7590FF75A0FFD0D08F
:07094300D082D083D0E03226
:100A0300E50E90000E93F580900016E50E93F5A089
:060A1300F5907F647E00F7
:100A1900D3EF9400EE940040147D6E7C00ED1D70C0
:0D0A2900011CED4C70F7EF1F70E61E80E31E
:010A3600229D
:100B2B00E4F50EE4F5A0F590F5807F2C7E01120A1A
:100B3B00197580FF75A0FF7590FF7F2C7E01120A3F
:0B0B4B0019050EE50EC3940340D922EB
:1007A600E4F50EE50E90001693F5A07F327E00125A
:1007B6000A19050EE50EC3940840E875A0FFE4F596
:1007C6000EE50E90001693F5907F327E00120A1900
:1007D600050EE50EC3940840E87590FFE4F50EE5B6
:1007E6000E90000E93F5807F327E00120A19050ED8
:0B07F600E50EC3940840E87580FF2268
:10080100E4F50EE50E90001693F5807F327E00121E
:100811000A19050EE50EC3940840E87580FFE4F55A
:100821000EE50E90000E93F5907F327E00120A19AC
:10083100050EE50EC3940840E87590FFE4F50EE55A
:100841000E90000E93F5A07F327E00120A19050E5C
:0B085100E50EC3940840E875A0FF22EC
:1008B700E4F50EE50E90001693F580E50E90000E18
:1008C70093F590F5A0120A15050EE50EC39408409E
:1008D700E2E4F50EE50E90000E93F580E50E90002C
:1008E7001693F590F5A0120A15050EE50EC39408A8
:0C08F70040E27580FF7590FF75A0FF22A5
:100A3700E4F50EE50EC39408500CE50E90001693EE
:100A4700F580F5A0800E7580FF75A0FFE50E90007C
:100A57005093F590120A15050EE50EC3940C40D37A
:040A67007590FF2265
:10094A00E4F50EE50EC39404501AC37403950EFF22
:10095A00E49400FE74502FF58274003EF583E4930C
:10096A00F590800D7590FFE50E90000E93F580F5D9
:10097A00A0120A15050EE50EC3940C40C67580FF39
:04098A0075A0FF2233
:1009CB00E4F50EE50E90002693F580F5A0120A15BE
:1009DB00050EE50EC3940840EA7580FF75A0FFE491
:1009EB00F50EE50E90005493120A13050EE50EC397
:0809FB00940440EE7590FF2208
:100AD000E4F50EE50E90005493120A13050EE50E90
:100AE000C3940440EEE4F50EE50E90001E93F580ED
:0F0AF000F5A0120A15050EE50EC3940840EA2280
:100BEE00E4F50EE50E90003793F58090002E120A74
:100BFE000E050EE50EC3940940E97F2C7E01020A14
:010C0E0019CC
:10098E00E4F50FE4F50E120A03050EE50EC3940806
:10099E0040F47580FF75A0FF7590FFE4F50E120A06
:1009AE0003050EE50EC3940840F47580FF75A0FF95
:0D09BE007590FF050FE50FC3940240C7229E
:100BA800E4F50EE50E90001E93F580E50E90002604
:100BB800120A10050EE50EC3940840E77FE87E038D
:030BC800020A1905
:100BCB00E4F50EE50E90002E93F580E50E900037C0
:100BDB00120A10050EE50EC3940840E77F2C7E0128
:030BEB00020A19E2
:100B5600E4F50EE50E90001E93F580F5A0E50EC3B4
:100B660094045008E50E90005093F590120A15056E
:090B76000EE50EC3940840DB22D9
:100B7F00E4F50EE50E90003793F580F5A0E50EC372
:100B8F0094045008E50E90005C93F590120A150539
:090B9F000EE50EC3940840DB22B0
:10056E00E4F50E7580AA75905575A0AA120A15634A
:10057E0080FF6390FF63A0FF120A15050EE50EC300
:10058E00940540DFE4F50E7580AA75905575A0AA06
:10059E007FC87E00120A196380FF6390FF63A0FF7D
:1005AE007FC87E00120A19050EE50EC3940540D7CA
:1005BE00E4F50E7580AA75905575A0AA7F2C7E0164
:1005CE00120A196380FF6390FF63A0FF7F2C7E01E8
:1005DE00120A19050EE50EC3940540D77580FF75F6
:0C05EE00A0FF7590FF7F2C7E01020A190F
:10030A00E4F50EC37403950EFFE49400FE74262FE1
:10031A00F58274003EF583E493120A13050EE50E86
:10032A00C3940440DEE4F50EE50E90001E93F580BA
:10033A00120A15050EE50EC3940840ECE4F50EE525
:10034A000E90006093120A13050EE50EC394044042
:10035A00EEE4F50EE50E90001E93F5A0120A1505BF
:10036A000EE50EC3940840EC7580FF7590FF75A0EA
:10037A00FFE4F50EC37403950EFFE49400FE7426A1
:10038A002FF58274003EF583E493F5907F327E0068
:10039A00120A19050EE50EC3940440D8E4F50EE5D9
:1003AA000E90001E93F5807F327E00120A19050E08
:1003BA00E50EC3940840E8E4F50EE50E900060935C
:1003CA00F5907F327E00120A19050EE50EC39404D9
:1003DA0040E8E4F50EE50E90001E93F5A07F327E0C
:1003EA0000120A19050EE50EC3940840E87580FF4D
:0703FA007590FF75A0FF22C2
:10040100E4F50EE50E90002693F5A0120A15050EEF
:10041100E50EC3940840ECE4F50EE50E900026933A
:10042100120A13050EE50EC3940440EEE4F50EE541
:100431000E90002693F580120A15050EE50EC39461
:100441000840ECE4F50EE50E90006493F580120A85
:1004510015050EE50EC3940440EC7580FF7590FF01
:1004610075A0FFE4F50EE50E90002693F5A07F320E
:100471007E00120A19050EE50EC3940840E8E4F562
:100481000EE50E90002693F5907F327E00120A1938
:10049100050EE50EC3940440E8E4F50EE50E900068
:1004A1002693F5807F327E00120A19050EE50EC3F0
:1004B100940840E8E4F50EE50E90006493F5807F22
:1004C100327E00120A19050EE50EC3940440E87548
:0904D10080FF7590FF75A0FF2269
:100AFF00E4F50EE4F580F5A07FE87E03120A197580
:100B0F0080FF75A0FFE4F5907FE87E03120A197548
:0C0B1F0090FF050EE50EC3940240D822A2
:10068600E4F590F50EE50E90002693F580F5A07F33
:10069600327E00120A19050EE50EC3940840E6E400
:1006A600F50EE50E90002693F580F5A0120A1505C5
:1006B6000EE50EC3940840EAE4F50E6380FF63A0DE
:1006C600FF7F507E00120A19050EE50EC394044002
:1006D600EA7FC87E00120A197590FF75A0FF758023
:0206E600FF22F1
:10074900E4F50EE50E90002693F580F5A0120A1542
:10075900050EE50EC3940840EAE4F50EE50E900097
:100769005093120A13050EE50EC3940440EEE4F506
:100779000EE50E90005C93120A13050EE50EC39464
:100789000440EEE4F50EE50E90002E93F580F5A0F9
:0D079900120A15050EE50EC3940840EA2271
:1004DA00E4F50EE50E90001E93FFF580E50EC39439
:1004EA000450028F90120A15050EE50EC3940840B7
:1004FA00E2E4F50EE50E90002693F5A0E50EC3940E
:10050A00045008E50E90006093F590120A15050E46
:10051A00E50EC3940840DDE4F50EE50E90002E9337
:10052A00F5A0E50EC394045008E50E90006893F513
:10053A0090120A15050EE50EC3940840DDE4F50E87
:10054A00E50E90003793F580E50EC394045008E554
:10055A000E90003C93F590120A15050EE50EC39411
:04056A000840DD2246
:10085C00E4F50EE50EC394045008E50E90006C937D
:10086C00F590E50EC394085008E50E90002693F51C
:10087C0080120A15050EE50EC3940840D6E4F50E59
:10088C00E50EC394045008E50E90007093F590E5C6
:10089C000EC394085008E50E90001E93F5A0120AA2
:0B08AC0015050EE50EC3940840D6228F
:1006E800E4F50EE50EC394045008E50E90007493EB
:1006F800F590E50EC394085008E50E90002693F592
:1007080080120A15050EE50EC3940840D6E4F50ECE
:10071800E50EC394045008E50E90007893F590E533
:100728000EC394085008E50E90001E93F5A0120A17
:1007380015050EE50EC3940840D67F2C7E01020AEB
:010748001997
:100A6B00E4F50E75900FE4F5A07FE87E03120A19EA
:100A7B007590F075A0FFE4F5807FE87E03120A19EC
:100A8B00050EE50EC3940240DA7590FF75A0FF7555
:030A9B0080FF22B7
:100A9E00E4F50E7580FFE4F5A075900F7F50FE1201
:100AAE000A197590F075A0FFE4F5807F50FE120ACA
:100ABE0019050EE50EC3940A40D9E4F5A0F580F5AC
:020ACE00902274
:10019A00E4FB758901D2AFD2A920B057120A152003
:1001AA00B04E120B2B1207A61208011208B7120A38
:1001BA003712094A1209CB120AD0120B2B120BEE74
:1001CA0012098E120BA8120BCB120B56120B7F12AE
:1001DA00056E12030A120401120AFF12068612079A
:1001EA00491204DA12085C1206E8120A6B120A9E15
:1001FA0030B0FD30B103020299120A1530B1030280
:10020A000296750A00750B01C3E50B9509E50A9577
:10021A000850347580FF7590FF75A0FFAF0BAE0ACA
:10022A00120C21E4F580F590F5A0C3E509950BF5CC
:10023A000DE508950AF50CAF0DFE120C21050BE52C
:10024A000B70C5050A80C1750C00750D01C3E50D5B
:10025A009509E50C950850AA7580FF7590FF75A061
:10026A00FFC3E509950DF50BE508950CF50AAF0BEB
:10027A00FE120C21E4F580F590F5A0AF0DAE0C123C
:10028A000C21050DE50D70C5050C80C130B1FD309E
:10029A00B2030201A3120A1530B2030201A3EB252D
:1002AA00E024DEF582E43400F583E493F510EB25CF
:1002BA00E024DFF582E43400F583E493F511E510D8
:1002CA007004C28C8032E510B4FF0BC28C7F1E1200
:1002DA000C0FE4FB80C8EB25E024E0F582E434004F
:1002EA00F583E493B5100FD28CAF11120C0FC28CA8
:1002FA00120C2C0B80A8D28CAF11120C0F0B809E03
:030000000205FAFC
:0C05FA00787FE4F6D8FD758111020641FF
:1006060002019AE493A3F8E493A34003F68001F26F
:1006160008DFF48029E493A3F85407240CC8C333F5
:10062600C4540F4420C8834004F456800146F6DFC4
:10063600E4800B0102040810204080900003E47E51
:10064600019360BCA3FF543F30E509541FFEE493B9
:10065600A360010ECF54C025E060A840B8E493A380
:10066600FAE493A3F8E493A3C8C582C8CAC583CAAB
:10067600F0A3C8C582C8CAC583CADFE9DEE780BE63
:0100070000F8
:00000001FF
